{
  "contractName": "CollectibleNFT",
  "abi": [
    {
      "inputs": [
        {
          "internalType": "string",
          "name": "name_",
          "type": "string"
        },
        {
          "internalType": "string",
          "name": "symbol_",
          "type": "string"
        },
        {
          "internalType": "string",
          "name": "baseURI",
          "type": "string"
        },
        {
          "internalType": "address",
          "name": "royaltyRecipient",
          "type": "address"
        },
        {
          "internalType": "uint256",
          "name": "royaltyValue",
          "type": "uint256"
        }
      ],
      "stateMutability": "nonpayable",
      "type": "constructor"
    },
    {
      "anonymous": false,
      "inputs": [
        {
          "indexed": true,
          "internalType": "address",
          "name": "owner",
          "type": "address"
        },
        {
          "indexed": true,
          "internalType": "address",
          "name": "approved",
          "type": "address"
        },
        {
          "indexed": true,
          "internalType": "uint256",
          "name": "tokenId",
          "type": "uint256"
        }
      ],
      "name": "Approval",
      "type": "event"
    },
    {
      "anonymous": false,
      "inputs": [
        {
          "indexed": true,
          "internalType": "address",
          "name": "owner",
          "type": "address"
        },
        {
          "indexed": true,
          "internalType": "address",
          "name": "operator",
          "type": "address"
        },
        {
          "indexed": false,
          "internalType": "bool",
          "name": "approved",
          "type": "bool"
        }
      ],
      "name": "ApprovalForAll",
      "type": "event"
    },
    {
      "anonymous": false,
      "inputs": [
        {
          "indexed": true,
          "internalType": "bytes32",
          "name": "role",
          "type": "bytes32"
        },
        {
          "indexed": true,
          "internalType": "bytes32",
          "name": "previousAdminRole",
          "type": "bytes32"
        },
        {
          "indexed": true,
          "internalType": "bytes32",
          "name": "newAdminRole",
          "type": "bytes32"
        }
      ],
      "name": "RoleAdminChanged",
      "type": "event"
    },
    {
      "anonymous": false,
      "inputs": [
        {
          "indexed": true,
          "internalType": "bytes32",
          "name": "role",
          "type": "bytes32"
        },
        {
          "indexed": true,
          "internalType": "address",
          "name": "account",
          "type": "address"
        },
        {
          "indexed": true,
          "internalType": "address",
          "name": "sender",
          "type": "address"
        }
      ],
      "name": "RoleGranted",
      "type": "event"
    },
    {
      "anonymous": false,
      "inputs": [
        {
          "indexed": true,
          "internalType": "bytes32",
          "name": "role",
          "type": "bytes32"
        },
        {
          "indexed": true,
          "internalType": "address",
          "name": "account",
          "type": "address"
        },
        {
          "indexed": true,
          "internalType": "address",
          "name": "sender",
          "type": "address"
        }
      ],
      "name": "RoleRevoked",
      "type": "event"
    },
    {
      "anonymous": false,
      "inputs": [
        {
          "indexed": true,
          "internalType": "address",
          "name": "from",
          "type": "address"
        },
        {
          "indexed": true,
          "internalType": "address",
          "name": "to",
          "type": "address"
        },
        {
          "indexed": true,
          "internalType": "uint256",
          "name": "tokenId",
          "type": "uint256"
        }
      ],
      "name": "Transfer",
      "type": "event"
    },
    {
      "inputs": [],
      "name": "ADMIN_ROLE",
      "outputs": [
        {
          "internalType": "bytes32",
          "name": "",
          "type": "bytes32"
        }
      ],
      "stateMutability": "view",
      "type": "function",
      "constant": true
    },
    {
      "inputs": [],
      "name": "DEFAULT_ADMIN_ROLE",
      "outputs": [
        {
          "internalType": "bytes32",
          "name": "",
          "type": "bytes32"
        }
      ],
      "stateMutability": "view",
      "type": "function",
      "constant": true
    },
    {
      "inputs": [
        {
          "internalType": "address",
          "name": "to",
          "type": "address"
        },
        {
          "internalType": "uint256",
          "name": "tokenId",
          "type": "uint256"
        }
      ],
      "name": "approve",
      "outputs": [],
      "stateMutability": "nonpayable",
      "type": "function"
    },
    {
      "inputs": [
        {
          "internalType": "address",
          "name": "owner",
          "type": "address"
        }
      ],
      "name": "balanceOf",
      "outputs": [
        {
          "internalType": "uint256",
          "name": "",
          "type": "uint256"
        }
      ],
      "stateMutability": "view",
      "type": "function",
      "constant": true
    },
    {
      "inputs": [],
      "name": "contractOwner",
      "outputs": [
        {
          "internalType": "address",
          "name": "",
          "type": "address"
        }
      ],
      "stateMutability": "view",
      "type": "function",
      "constant": true
    },
    {
      "inputs": [
        {
          "internalType": "uint256",
          "name": "tokenId",
          "type": "uint256"
        }
      ],
      "name": "getApproved",
      "outputs": [
        {
          "internalType": "address",
          "name": "",
          "type": "address"
        }
      ],
      "stateMutability": "view",
      "type": "function",
      "constant": true
    },
    {
      "inputs": [
        {
          "internalType": "bytes32",
          "name": "role",
          "type": "bytes32"
        }
      ],
      "name": "getRoleAdmin",
      "outputs": [
        {
          "internalType": "bytes32",
          "name": "",
          "type": "bytes32"
        }
      ],
      "stateMutability": "view",
      "type": "function",
      "constant": true
    },
    {
      "inputs": [
        {
          "internalType": "bytes32",
          "name": "role",
          "type": "bytes32"
        },
        {
          "internalType": "address",
          "name": "account",
          "type": "address"
        }
      ],
      "name": "grantRole",
      "outputs": [],
      "stateMutability": "nonpayable",
      "type": "function"
    },
    {
      "inputs": [
        {
          "internalType": "bytes32",
          "name": "role",
          "type": "bytes32"
        },
        {
          "internalType": "address",
          "name": "account",
          "type": "address"
        }
      ],
      "name": "hasRole",
      "outputs": [
        {
          "internalType": "bool",
          "name": "",
          "type": "bool"
        }
      ],
      "stateMutability": "view",
      "type": "function",
      "constant": true
    },
    {
      "inputs": [
        {
          "internalType": "address",
          "name": "owner",
          "type": "address"
        },
        {
          "internalType": "address",
          "name": "operator",
          "type": "address"
        }
      ],
      "name": "isApprovedForAll",
      "outputs": [
        {
          "internalType": "bool",
          "name": "",
          "type": "bool"
        }
      ],
      "stateMutability": "view",
      "type": "function",
      "constant": true
    },
    {
      "inputs": [],
      "name": "name",
      "outputs": [
        {
          "internalType": "string",
          "name": "",
          "type": "string"
        }
      ],
      "stateMutability": "view",
      "type": "function",
      "constant": true
    },
    {
      "inputs": [
        {
          "internalType": "uint256",
          "name": "tokenId",
          "type": "uint256"
        }
      ],
      "name": "ownerOf",
      "outputs": [
        {
          "internalType": "address",
          "name": "",
          "type": "address"
        }
      ],
      "stateMutability": "view",
      "type": "function",
      "constant": true
    },
    {
      "inputs": [],
      "name": "prodOperatorAddress",
      "outputs": [
        {
          "internalType": "address",
          "name": "",
          "type": "address"
        }
      ],
      "stateMutability": "view",
      "type": "function",
      "constant": true
    },
    {
      "inputs": [
        {
          "internalType": "bytes32",
          "name": "role",
          "type": "bytes32"
        },
        {
          "internalType": "address",
          "name": "account",
          "type": "address"
        }
      ],
      "name": "renounceRole",
      "outputs": [],
      "stateMutability": "nonpayable",
      "type": "function"
    },
    {
      "inputs": [
        {
          "internalType": "bytes32",
          "name": "role",
          "type": "bytes32"
        },
        {
          "internalType": "address",
          "name": "account",
          "type": "address"
        }
      ],
      "name": "revokeRole",
      "outputs": [],
      "stateMutability": "nonpayable",
      "type": "function"
    },
    {
      "inputs": [
        {
          "internalType": "uint256",
          "name": "",
          "type": "uint256"
        },
        {
          "internalType": "uint256",
          "name": "value",
          "type": "uint256"
        }
      ],
      "name": "royaltyInfo",
      "outputs": [
        {
          "internalType": "address",
          "name": "receiver",
          "type": "address"
        },
        {
          "internalType": "uint256",
          "name": "royaltyAmount",
          "type": "uint256"
        }
      ],
      "stateMutability": "view",
      "type": "function",
      "constant": true
    },
    {
      "inputs": [
        {
          "internalType": "address",
          "name": "from",
          "type": "address"
        },
        {
          "internalType": "address",
          "name": "to",
          "type": "address"
        },
        {
          "internalType": "uint256",
          "name": "tokenId",
          "type": "uint256"
        }
      ],
      "name": "safeTransferFrom",
      "outputs": [],
      "stateMutability": "nonpayable",
      "type": "function"
    },
    {
      "inputs": [
        {
          "internalType": "address",
          "name": "from",
          "type": "address"
        },
        {
          "internalType": "address",
          "name": "to",
          "type": "address"
        },
        {
          "internalType": "uint256",
          "name": "tokenId",
          "type": "uint256"
        },
        {
          "internalType": "bytes",
          "name": "_data",
          "type": "bytes"
        }
      ],
      "name": "safeTransferFrom",
      "outputs": [],
      "stateMutability": "nonpayable",
      "type": "function"
    },
    {
      "inputs": [
        {
          "internalType": "address",
          "name": "operator",
          "type": "address"
        },
        {
          "internalType": "bool",
          "name": "approved",
          "type": "bool"
        }
      ],
      "name": "setApprovalForAll",
      "outputs": [],
      "stateMutability": "nonpayable",
      "type": "function"
    },
    {
      "inputs": [],
      "name": "symbol",
      "outputs": [
        {
          "internalType": "string",
          "name": "",
          "type": "string"
        }
      ],
      "stateMutability": "view",
      "type": "function",
      "constant": true
    },
    {
      "inputs": [],
      "name": "testOperatorAddress",
      "outputs": [
        {
          "internalType": "address",
          "name": "",
          "type": "address"
        }
      ],
      "stateMutability": "view",
      "type": "function",
      "constant": true
    },
    {
      "inputs": [
        {
          "internalType": "uint256",
          "name": "index",
          "type": "uint256"
        }
      ],
      "name": "tokenByIndex",
      "outputs": [
        {
          "internalType": "uint256",
          "name": "",
          "type": "uint256"
        }
      ],
      "stateMutability": "view",
      "type": "function",
      "constant": true
    },
    {
      "inputs": [
        {
          "internalType": "address",
          "name": "owner",
          "type": "address"
        },
        {
          "internalType": "uint256",
          "name": "index",
          "type": "uint256"
        }
      ],
      "name": "tokenOfOwnerByIndex",
      "outputs": [
        {
          "internalType": "uint256",
          "name": "",
          "type": "uint256"
        }
      ],
      "stateMutability": "view",
      "type": "function",
      "constant": true
    },
    {
      "inputs": [],
      "name": "totalSupply",
      "outputs": [
        {
          "internalType": "uint256",
          "name": "",
          "type": "uint256"
        }
      ],
      "stateMutability": "view",
      "type": "function",
      "constant": true
    },
    {
      "inputs": [
        {
          "internalType": "address",
          "name": "from",
          "type": "address"
        },
        {
          "internalType": "address",
          "name": "to",
          "type": "address"
        },
        {
          "internalType": "uint256",
          "name": "tokenId",
          "type": "uint256"
        }
      ],
      "name": "transferFrom",
      "outputs": [],
      "stateMutability": "nonpayable",
      "type": "function"
    },
    {
      "inputs": [
        {
          "internalType": "string",
          "name": "baseURI",
          "type": "string"
        }
      ],
      "name": "setBaseURI",
      "outputs": [],
      "stateMutability": "nonpayable",
      "type": "function"
    },
    {
      "inputs": [
        {
          "internalType": "uint256",
          "name": "tokenId",
          "type": "uint256"
        }
      ],
      "name": "tokenURI",
      "outputs": [
        {
          "internalType": "string",
          "name": "",
          "type": "string"
        }
      ],
      "stateMutability": "view",
      "type": "function",
      "constant": true
    },
    {
      "inputs": [
        {
          "internalType": "bytes4",
          "name": "interfaceId",
          "type": "bytes4"
        }
      ],
      "name": "supportsInterface",
      "outputs": [
        {
          "internalType": "bool",
          "name": "",
          "type": "bool"
        }
      ],
      "stateMutability": "view",
      "type": "function",
      "constant": true
    },
    {
      "inputs": [
        {
          "internalType": "address",
          "name": "player",
          "type": "address"
        },
        {
          "internalType": "uint256",
          "name": "",
          "type": "uint256"
        },
        {
          "internalType": "bytes",
          "name": "mintingBlob",
          "type": "bytes"
        }
      ],
      "name": "mintFor",
      "outputs": [
        {
          "internalType": "uint256",
          "name": "",
          "type": "uint256"
        }
      ],
      "stateMutability": "nonpayable",
      "type": "function"
    }
  ],
  "bytecode": "0x60806040523480156200001157600080fd5b5060405162004ecb38038062004ecb8339818101604052810190620000379190620004da565b84848160009080519060200190620000519291906200037e565b5080600190805190602001906200006a9291906200037e565b5050506200007f82826200011660201b60201c565b620000b17fa49807205ce4d355092ef5a8a18f56e8913cf4a201fbe287825b095693c21775336200020360201b60201c565b33600d60006101000a81548173ffffffffffffffffffffffffffffffffffffffff021916908373ffffffffffffffffffffffffffffffffffffffff16021790555082600e90805190602001906200010a9291906200037e565b50505050505062000838565b6127108111156200015e576040517f08c379a00000000000000000000000000000000000000000000000000000000081526004016200015590620005e6565b60405180910390fd5b60405180604001604052808373ffffffffffffffffffffffffffffffffffffffff1681526020018262ffffff16815250600c60008201518160000160006101000a81548173ffffffffffffffffffffffffffffffffffffffff021916908373ffffffffffffffffffffffffffffffffffffffff16021790555060208201518160000160146101000a81548162ffffff021916908362ffffff1602179055509050505050565b6200021582826200021960201b60201c565b5050565b6200022b82826200030b60201b60201c565b62000307576001600b600084815260200190815260200160002060000160008373ffffffffffffffffffffffffffffffffffffffff1673ffffffffffffffffffffffffffffffffffffffff16815260200190815260200160002060006101000a81548160ff021916908315150217905550620002ac6200037660201b60201c565b73ffffffffffffffffffffffffffffffffffffffff168173ffffffffffffffffffffffffffffffffffffffff16837f2f8788117e7eff1d82e926ec794901d17c78024a50270940304540a733656f0d60405160405180910390a45b5050565b6000600b600084815260200190815260200160002060000160008373ffffffffffffffffffffffffffffffffffffffff1673ffffffffffffffffffffffffffffffffffffffff16815260200190815260200160002060009054906101000a900460ff16905092915050565b600033905090565b8280546200038c90620006ec565b90600052602060002090601f016020900481019282620003b05760008555620003fc565b82601f10620003cb57805160ff1916838001178555620003fc565b82800160010185558215620003fc579182015b82811115620003fb578251825591602001919060010190620003de565b5b5090506200040b91906200040f565b5090565b5b808211156200042a57600081600090555060010162000410565b5090565b6000620004456200043f8462000631565b62000608565b905082815260208101848484011115620004645762000463620007bb565b5b62000471848285620006b6565b509392505050565b6000815190506200048a8162000804565b92915050565b600082601f830112620004a857620004a7620007b6565b5b8151620004ba8482602086016200042e565b91505092915050565b600081519050620004d4816200081e565b92915050565b600080600080600060a08688031215620004f957620004f8620007c5565b5b600086015167ffffffffffffffff8111156200051a5762000519620007c0565b5b620005288882890162000490565b955050602086015167ffffffffffffffff8111156200054c576200054b620007c0565b5b6200055a8882890162000490565b945050604086015167ffffffffffffffff8111156200057e576200057d620007c0565b5b6200058c8882890162000490565b93505060606200059f8882890162000479565b9250506080620005b288828901620004c3565b9150509295509295909350565b6000620005ce601a8362000667565b9150620005db82620007db565b602082019050919050565b600060208201905081810360008301526200060181620005bf565b9050919050565b60006200061462000627565b905062000622828262000722565b919050565b6000604051905090565b600067ffffffffffffffff8211156200064f576200064e62000787565b5b6200065a82620007ca565b9050602081019050919050565b600082825260208201905092915050565b600062000685826200068c565b9050919050565b600073ffffffffffffffffffffffffffffffffffffffff82169050919050565b6000819050919050565b60005b83811015620006d6578082015181840152602081019050620006b9565b83811115620006e6576000848401525b50505050565b600060028204905060018216806200070557607f821691505b602082108114156200071c576200071b62000758565b5b50919050565b6200072d82620007ca565b810181811067ffffffffffffffff821117156200074f576200074e62000787565b5b80604052505050565b7f4e487b7100000000000000000000000000000000000000000000000000000000600052602260045260246000fd5b7f4e487b7100000000000000000000000000000000000000000000000000000000600052604160045260246000fd5b600080fd5b600080fd5b600080fd5b600080fd5b6000601f19601f8301169050919050565b7f45524332393831526f79616c746965733a20546f6f2068696768000000000000600082015250565b6200080f8162000678565b81146200081b57600080fd5b50565b6200082981620006ac565b81146200083557600080fd5b50565b61468380620008486000396000f3fe608060405234801561001057600080fd5b506004361061015f5760003560e01c806301ffc9a71461016457806306fdde0314610194578063081812fc146101b2578063095ea7b3146101e257806318160ddd146101fe57806319ee6e3f1461021c57806323b872dd1461024c578063248a9ca3146102685780632a55205a146102985780632ab3eebe146102c95780632f2ff15d146102e75780632f745c591461030357806336568abe1461033357806342842e0e1461034f5780634f6ccce71461036b5780635505478d1461039b57806355f804b3146103b95780636352211e146103d557806370a082311461040557806375b238fc1461043557806391d148541461045357806395d89b4114610483578063a217fddf146104a1578063a22cb465146104bf578063b88d4fde146104db578063c87b56dd146104f7578063ce606ee014610527578063d547741f14610545578063e985e9c514610561575b600080fd5b61017e60048036038101906101799190613023565b610591565b60405161018b9190613625565b60405180910390f35b61019c6105a3565b6040516101a9919061365b565b60405180910390f35b6101cc60048036038101906101c791906130c6565b610635565b6040516101d99190613595565b60405180910390f35b6101fc60048036038101906101f79190612f02565b6106ba565b005b6102066107d2565b604051610213919061391d565b60405180910390f35b61023660048036038101906102319190612f42565b6107df565b604051610243919061391d565b60405180910390f35b61026660048036038101906102619190612dec565b61096c565b005b610282600480360381019061027d9190612fb6565b6109cc565b60405161028f9190613640565b60405180910390f35b6102b260048036038101906102ad91906130f3565b6109ec565b6040516102c09291906135fc565b60405180910390f35b6102d1610aac565b6040516102de9190613595565b60405180910390f35b61030160048036038101906102fc9190612fe3565b610ac4565b005b61031d60048036038101906103189190612f02565b610ae5565b60405161032a919061391d565b60405180910390f35b61034d60048036038101906103489190612fe3565b610b8a565b005b61036960048036038101906103649190612dec565b610c0d565b005b610385600480360381019061038091906130c6565b610c2d565b604051610392919061391d565b60405180910390f35b6103a3610c9e565b6040516103b09190613595565b60405180910390f35b6103d360048036038101906103ce919061307d565b610cb6565b005b6103ef60048036038101906103ea91906130c6565b610d40565b6040516103fc9190613595565b60405180910390f35b61041f600480360381019061041a9190612d7f565b610df2565b60405161042c919061391d565b60405180910390f35b61043d610eaa565b60405161044a9190613640565b60405180910390f35b61046d60048036038101906104689190612fe3565b610ece565b60405161047a9190613625565b60405180910390f35b61048b610f39565b604051610498919061365b565b60405180910390f35b6104a9610fcb565b6040516104b69190613640565b60405180910390f35b6104d960048036038101906104d49190612ec2565b610fd2565b005b6104f560048036038101906104f09190612e3f565b610fe8565b005b610511600480360381019061050c91906130c6565b61104a565b60405161051e919061365b565b60405180910390f35b61052f61105c565b60405161053c9190613595565b60405180910390f35b61055f600480360381019061055a9190612fe3565b611082565b005b61057b60048036038101906105769190612dac565b6110a3565b6040516105889190613625565b60405180910390f35b600061059c82611137565b9050919050565b6060600080546105b290613d72565b80601f01602080910402602001604051908101604052809291908181526020018280546105de90613d72565b801561062b5780601f106106005761010080835404028352916020019161062b565b820191906000526020600020905b81548152906001019060200180831161060e57829003601f168201915b5050505050905090565b6000610640826111b1565b61067f576040517f08c379a00000000000000000000000000000000000000000000000000000000081526004016106769061383d565b60405180910390fd5b6004600083815260200190815260200160002060009054906101000a900473ffffffffffffffffffffffffffffffffffffffff169050919050565b60006106c582610d40565b90508073ffffffffffffffffffffffffffffffffffffffff168373ffffffffffffffffffffffffffffffffffffffff161415610736576040517f08c379a000000000000000000000000000000000000000000000000000000000815260040161072d9061387d565b60405180910390fd5b8073ffffffffffffffffffffffffffffffffffffffff1661075561121d565b73ffffffffffffffffffffffffffffffffffffffff16148061078457506107838161077e61121d565b6110a3565b5b6107c3576040517f08c379a00000000000000000000000000000000000000000000000000000000081526004016107ba9061379d565b60405180910390fd5b6107cd8383611225565b505050565b6000600880549050905090565b6000600d60009054906101000a900473ffffffffffffffffffffffffffffffffffffffff1673ffffffffffffffffffffffffffffffffffffffff163373ffffffffffffffffffffffffffffffffffffffff16148061087c575073b62bcd40a24985f560b5a9745d478791d8f1945c73ffffffffffffffffffffffffffffffffffffffff163373ffffffffffffffffffffffffffffffffffffffff16145b806108c65750738eb82154f314ec687957ce1e9c1a5dc3a3234df973ffffffffffffffffffffffffffffffffffffffff163373ffffffffffffffffffffffffffffffffffffffff16145b610905576040517f08c379a00000000000000000000000000000000000000000000000000000000081526004016108fc9061371d565b60405180910390fd5b600061095484848080601f016020809104026020016040519081016040528093929190818152602001838380828437600081840152601f19601f820116905080830192505050505050506112de565b90506109608682611376565b80915050949350505050565b61097d61097761121d565b82611550565b6109bc576040517f08c379a00000000000000000000000000000000000000000000000000000000081526004016109b3906138bd565b60405180910390fd5b6109c783838361162e565b505050565b6000600b6000838152602001908152602001600020600101549050919050565b6000806000600c6040518060400160405290816000820160009054906101000a900473ffffffffffffffffffffffffffffffffffffffff1673ffffffffffffffffffffffffffffffffffffffff1673ffffffffffffffffffffffffffffffffffffffff1681526020016000820160149054906101000a900462ffffff1662ffffff1662ffffff1681525050905080600001519250612710816020015162ffffff1685610a989190613bfa565b610aa29190613a58565b9150509250929050565b73b62bcd40a24985f560b5a9745d478791d8f1945c81565b610acd826109cc565b610ad681611895565b610ae083836118a9565b505050565b6000610af083610df2565b8210610b31576040517f08c379a0000000000000000000000000000000000000000000000000000000008152600401610b289061369d565b60405180910390fd5b600660008473ffffffffffffffffffffffffffffffffffffffff1673ffffffffffffffffffffffffffffffffffffffff168152602001908152602001600020600083815260200190815260200160002054905092915050565b610b9261121d565b73ffffffffffffffffffffffffffffffffffffffff168173ffffffffffffffffffffffffffffffffffffffff1614610bff576040517f08c379a0000000000000000000000000000000000000000000000000000000008152600401610bf6906138fd565b60405180910390fd5b610c09828261198a565b5050565b610c2883838360405180602001604052806000815250610fe8565b505050565b6000610c376107d2565b8210610c78576040517f08c379a0000000000000000000000000000000000000000000000000000000008152600401610c6f906138dd565b60405180910390fd5b60088281548110610c8c57610c8b613f0b565b5b90600052602060002001549050919050565b738eb82154f314ec687957ce1e9c1a5dc3a3234df981565b610ce77fa49807205ce4d355092ef5a8a18f56e8913cf4a201fbe287825b095693c21775610ce261121d565b610ece565b610d26576040517f08c379a0000000000000000000000000000000000000000000000000000000008152600401610d1d9061389d565b60405180910390fd5b80600e9080519060200190610d3c929190612b28565b5050565b6000806002600084815260200190815260200160002060009054906101000a900473ffffffffffffffffffffffffffffffffffffffff169050600073ffffffffffffffffffffffffffffffffffffffff168173ffffffffffffffffffffffffffffffffffffffff161415610de9576040517f08c379a0000000000000000000000000000000000000000000000000000000008152600401610de0906137dd565b60405180910390fd5b80915050919050565b60008073ffffffffffffffffffffffffffffffffffffffff168273ffffffffffffffffffffffffffffffffffffffff161415610e63576040517f08c379a0000000000000000000000000000000000000000000000000000000008152600401610e5a906137bd565b60405180910390fd5b600360008373ffffffffffffffffffffffffffffffffffffffff1673ffffffffffffffffffffffffffffffffffffffff168152602001908152602001600020549050919050565b7fa49807205ce4d355092ef5a8a18f56e8913cf4a201fbe287825b095693c2177581565b6000600b600084815260200190815260200160002060000160008373ffffffffffffffffffffffffffffffffffffffff1673ffffffffffffffffffffffffffffffffffffffff16815260200190815260200160002060009054906101000a900460ff16905092915050565b606060018054610f4890613d72565b80601f0160208091040260200160405190810160405280929190818152602001828054610f7490613d72565b8015610fc15780601f10610f9657610100808354040283529160200191610fc1565b820191906000526020600020905b815481529060010190602001808311610fa457829003601f168201915b5050505050905090565b6000801b81565b610fe4610fdd61121d565b8383611a6c565b5050565b610ff9610ff361121d565b83611550565b611038576040517f08c379a000000000000000000000000000000000000000000000000000000000815260040161102f906138bd565b60405180910390fd5b61104484848484611bd9565b50505050565b606061105582611c35565b9050919050565b600d60009054906101000a900473ffffffffffffffffffffffffffffffffffffffff1681565b61108b826109cc565b61109481611895565b61109e838361198a565b505050565b6000600560008473ffffffffffffffffffffffffffffffffffffffff1673ffffffffffffffffffffffffffffffffffffffff16815260200190815260200160002060008373ffffffffffffffffffffffffffffffffffffffff1673ffffffffffffffffffffffffffffffffffffffff16815260200190815260200160002060009054906101000a900460ff16905092915050565b60007f2a55205a000000000000000000000000000000000000000000000000000000007bffffffffffffffffffffffffffffffffffffffffffffffffffffffff1916827bffffffffffffffffffffffffffffffffffffffffffffffffffffffff191614806111aa57506111a982611d87565b5b9050919050565b60008073ffffffffffffffffffffffffffffffffffffffff166002600084815260200190815260200160002060009054906101000a900473ffffffffffffffffffffffffffffffffffffffff1673ffffffffffffffffffffffffffffffffffffffff1614159050919050565b600033905090565b816004600083815260200190815260200160002060006101000a81548173ffffffffffffffffffffffffffffffffffffffff021916908373ffffffffffffffffffffffffffffffffffffffff160217905550808273ffffffffffffffffffffffffffffffffffffffff1661129883610d40565b73ffffffffffffffffffffffffffffffffffffffff167f8c5be1e5ebec7d5bd14f71427d1e84f3dd0314c0f7b2291e5b200ac8c7c3b92560405160405180910390a45050565b60008060005b835181101561136c576001816112fa9190613a02565b84516113069190613c54565b60086113129190613bfa565b600261131e9190613adc565b84828151811061133157611330613f0b565b5b602001015160f81c60f81b60f81c60ff1661134c9190613bfa565b826113579190613a02565b9150808061136490613dd5565b9150506112e4565b5080915050919050565b600073ffffffffffffffffffffffffffffffffffffffff168273ffffffffffffffffffffffffffffffffffffffff1614156113e6576040517f08c379a00000000000000000000000000000000000000000000000000000000081526004016113dd906137fd565b60405180910390fd5b6113ef816111b1565b1561142f576040517f08c379a0000000000000000000000000000000000000000000000000000000008152600401611426906136fd565b60405180910390fd5b61143b60008383611e01565b6001600360008473ffffffffffffffffffffffffffffffffffffffff1673ffffffffffffffffffffffffffffffffffffffff168152602001908152602001600020600082825461148b9190613a02565b92505081905550816002600083815260200190815260200160002060006101000a81548173ffffffffffffffffffffffffffffffffffffffff021916908373ffffffffffffffffffffffffffffffffffffffff160217905550808273ffffffffffffffffffffffffffffffffffffffff16600073ffffffffffffffffffffffffffffffffffffffff167fddf252ad1be2c89b69c2b068fc378daa952ba7f163c4a11628f55a4df523b3ef60405160405180910390a461154c60008383611e11565b5050565b600061155b826111b1565b61159a576040517f08c379a00000000000000000000000000000000000000000000000000000000081526004016115919061377d565b60405180910390fd5b60006115a583610d40565b90508073ffffffffffffffffffffffffffffffffffffffff168473ffffffffffffffffffffffffffffffffffffffff1614806115e757506115e681856110a3565b5b8061162557508373ffffffffffffffffffffffffffffffffffffffff1661160d84610635565b73ffffffffffffffffffffffffffffffffffffffff16145b91505092915050565b8273ffffffffffffffffffffffffffffffffffffffff1661164e82610d40565b73ffffffffffffffffffffffffffffffffffffffff16146116a4576040517f08c379a000000000000000000000000000000000000000000000000000000000815260040161169b906136dd565b60405180910390fd5b600073ffffffffffffffffffffffffffffffffffffffff168273ffffffffffffffffffffffffffffffffffffffff161415611714576040517f08c379a000000000000000000000000000000000000000000000000000000000815260040161170b9061373d565b60405180910390fd5b61171f838383611e01565b61172a600082611225565b6001600360008573ffffffffffffffffffffffffffffffffffffffff1673ffffffffffffffffffffffffffffffffffffffff168152602001908152602001600020600082825461177a9190613c54565b925050819055506001600360008473ffffffffffffffffffffffffffffffffffffffff1673ffffffffffffffffffffffffffffffffffffffff16815260200190815260200160002060008282546117d19190613a02565b92505081905550816002600083815260200190815260200160002060006101000a81548173ffffffffffffffffffffffffffffffffffffffff021916908373ffffffffffffffffffffffffffffffffffffffff160217905550808273ffffffffffffffffffffffffffffffffffffffff168473ffffffffffffffffffffffffffffffffffffffff167fddf252ad1be2c89b69c2b068fc378daa952ba7f163c4a11628f55a4df523b3ef60405160405180910390a4611890838383611e11565b505050565b6118a6816118a161121d565b611e16565b50565b6118b38282610ece565b611986576001600b600084815260200190815260200160002060000160008373ffffffffffffffffffffffffffffffffffffffff1673ffffffffffffffffffffffffffffffffffffffff16815260200190815260200160002060006101000a81548160ff02191690831515021790555061192b61121d565b73ffffffffffffffffffffffffffffffffffffffff168173ffffffffffffffffffffffffffffffffffffffff16837f2f8788117e7eff1d82e926ec794901d17c78024a50270940304540a733656f0d60405160405180910390a45b5050565b6119948282610ece565b15611a68576000600b600084815260200190815260200160002060000160008373ffffffffffffffffffffffffffffffffffffffff1673ffffffffffffffffffffffffffffffffffffffff16815260200190815260200160002060006101000a81548160ff021916908315150217905550611a0d61121d565b73ffffffffffffffffffffffffffffffffffffffff168173ffffffffffffffffffffffffffffffffffffffff16837ff6391f5c32d9c69d2a47ea670b442974b53935d1edc7fd64eb21e047a839171b60405160405180910390a45b5050565b8173ffffffffffffffffffffffffffffffffffffffff168373ffffffffffffffffffffffffffffffffffffffff161415611adb576040517f08c379a0000000000000000000000000000000000000000000000000000000008152600401611ad29061375d565b60405180910390fd5b80600560008573ffffffffffffffffffffffffffffffffffffffff1673ffffffffffffffffffffffffffffffffffffffff16815260200190815260200160002060008473ffffffffffffffffffffffffffffffffffffffff1673ffffffffffffffffffffffffffffffffffffffff16815260200190815260200160002060006101000a81548160ff0219169083151502179055508173ffffffffffffffffffffffffffffffffffffffff168373ffffffffffffffffffffffffffffffffffffffff167f17307eab39ab6107e8899845ad3d59bd9653f200f220920489ca2b5937696c3183604051611bcc9190613625565b60405180910390a3505050565b611be484848461162e565b611bf084848484611eb3565b611c2f576040517f08c379a0000000000000000000000000000000000000000000000000000000008152600401611c26906136bd565b60405180910390fd5b50505050565b6060611c40826111b1565b611c7f576040517f08c379a0000000000000000000000000000000000000000000000000000000008152600401611c769061381d565b60405180910390fd5b6000600a60008481526020019081526020016000208054611c9f90613d72565b80601f0160208091040260200160405190810160405280929190818152602001828054611ccb90613d72565b8015611d185780601f10611ced57610100808354040283529160200191611d18565b820191906000526020600020905b815481529060010190602001808311611cfb57829003601f168201915b505050505090506000611d2961204a565b9050600081511415611d3f578192505050611d82565b600082511115611d74578082604051602001611d5c929190613537565b60405160208183030381529060405292505050611d82565b611d7d846120dc565b925050505b919050565b60007f7965db0b000000000000000000000000000000000000000000000000000000007bffffffffffffffffffffffffffffffffffffffffffffffffffffffff1916827bffffffffffffffffffffffffffffffffffffffffffffffffffffffff19161480611dfa5750611df982612183565b5b9050919050565b611e0c8383836121fd565b505050565b505050565b611e208282610ece565b611eaf57611e458173ffffffffffffffffffffffffffffffffffffffff166014612311565b611e538360001c6020612311565b604051602001611e6492919061355b565b6040516020818303038152906040526040517f08c379a0000000000000000000000000000000000000000000000000000000008152600401611ea6919061365b565b60405180910390fd5b5050565b6000611ed48473ffffffffffffffffffffffffffffffffffffffff1661254d565b1561203d578373ffffffffffffffffffffffffffffffffffffffff1663150b7a02611efd61121d565b8786866040518563ffffffff1660e01b8152600401611f1f94939291906135b0565b602060405180830381600087803b158015611f3957600080fd5b505af1925050508015611f6a57506040513d601f19601f82011682018060405250810190611f679190613050565b60015b611fed573d8060008114611f9a576040519150601f19603f3d011682016040523d82523d6000602084013e611f9f565b606091505b50600081511415611fe5576040517f08c379a0000000000000000000000000000000000000000000000000000000008152600401611fdc906136bd565b60405180910390fd5b805181602001fd5b63150b7a0260e01b7bffffffffffffffffffffffffffffffffffffffffffffffffffffffff1916817bffffffffffffffffffffffffffffffffffffffffffffffffffffffff191614915050612042565b600190505b949350505050565b6060600e805461205990613d72565b80601f016020809104026020016040519081016040528092919081815260200182805461208590613d72565b80156120d25780601f106120a7576101008083540402835291602001916120d2565b820191906000526020600020905b8154815290600101906020018083116120b557829003601f168201915b5050505050905090565b60606120e7826111b1565b612126576040517f08c379a000000000000000000000000000000000000000000000000000000000815260040161211d9061385d565b60405180910390fd5b600061213061204a565b90506000815111612150576040518060200160405280600081525061217b565b8061215a84612570565b60405160200161216b929190613537565b6040516020818303038152906040525b915050919050565b60007f780e9d63000000000000000000000000000000000000000000000000000000007bffffffffffffffffffffffffffffffffffffffffffffffffffffffff1916827bffffffffffffffffffffffffffffffffffffffffffffffffffffffff191614806121f657506121f5826126d1565b5b9050919050565b6122088383836127b3565b600073ffffffffffffffffffffffffffffffffffffffff168373ffffffffffffffffffffffffffffffffffffffff16141561224b57612246816127b8565b61228a565b8173ffffffffffffffffffffffffffffffffffffffff168373ffffffffffffffffffffffffffffffffffffffff1614612289576122888382612801565b5b5b600073ffffffffffffffffffffffffffffffffffffffff168273ffffffffffffffffffffffffffffffffffffffff1614156122cd576122c88161296e565b61230c565b8273ffffffffffffffffffffffffffffffffffffffff168273ffffffffffffffffffffffffffffffffffffffff161461230b5761230a8282612a3f565b5b5b505050565b6060600060028360026123249190613bfa565b61232e9190613a02565b67ffffffffffffffff81111561234757612346613f3a565b5b6040519080825280601f01601f1916602001820160405280156123795781602001600182028036833780820191505090505b5090507f3000000000000000000000000000000000000000000000000000000000000000816000815181106123b1576123b0613f0b565b5b60200101907effffffffffffffffffffffffffffffffffffffffffffffffffffffffffffff1916908160001a9053507f78000000000000000000000000000000000000000000000000000000000000008160018151811061241557612414613f0b565b5b60200101907effffffffffffffffffffffffffffffffffffffffffffffffffffffffffffff1916908160001a905350600060018460026124559190613bfa565b61245f9190613a02565b90505b60018111156124ff577f3031323334353637383961626364656600000000000000000000000000000000600f8616601081106124a1576124a0613f0b565b5b1a60f81b8282815181106124b8576124b7613f0b565b5b60200101907effffffffffffffffffffffffffffffffffffffffffffffffffffffffffffff1916908160001a905350600485901c9450806124f890613d48565b9050612462565b5060008414612543576040517f08c379a000000000000000000000000000000000000000000000000000000000815260040161253a9061367d565b60405180910390fd5b8091505092915050565b6000808273ffffffffffffffffffffffffffffffffffffffff163b119050919050565b606060008214156125b8576040518060400160405280600181526020017f300000000000000000000000000000000000000000000000000000000000000081525090506126cc565b600082905060005b600082146125ea5780806125d390613dd5565b915050600a826125e39190613a58565b91506125c0565b60008167ffffffffffffffff81111561260657612605613f3a565b5b6040519080825280601f01601f1916602001820160405280156126385781602001600182028036833780820191505090505b5090505b600085146126c5576001826126519190613c54565b9150600a856126609190613e1e565b603061266c9190613a02565b60f81b81838151811061268257612681613f0b565b5b60200101907effffffffffffffffffffffffffffffffffffffffffffffffffffffffffffff1916908160001a905350600a856126be9190613a58565b945061263c565b8093505050505b919050565b60007f80ac58cd000000000000000000000000000000000000000000000000000000007bffffffffffffffffffffffffffffffffffffffffffffffffffffffff1916827bffffffffffffffffffffffffffffffffffffffffffffffffffffffff1916148061279c57507f5b5e139f000000000000000000000000000000000000000000000000000000007bffffffffffffffffffffffffffffffffffffffffffffffffffffffff1916827bffffffffffffffffffffffffffffffffffffffffffffffffffffffff1916145b806127ac57506127ab82612abe565b5b9050919050565b505050565b6008805490506009600083815260200190815260200160002081905550600881908060018154018082558091505060019003906000526020600020016000909190919091505550565b6000600161280e84610df2565b6128189190613c54565b90506000600760008481526020019081526020016000205490508181146128fd576000600660008673ffffffffffffffffffffffffffffffffffffffff1673ffffffffffffffffffffffffffffffffffffffff168152602001908152602001600020600084815260200190815260200160002054905080600660008773ffffffffffffffffffffffffffffffffffffffff1673ffffffffffffffffffffffffffffffffffffffff168152602001908152602001600020600084815260200190815260200160002081905550816007600083815260200190815260200160002081905550505b6007600084815260200190815260200160002060009055600660008573ffffffffffffffffffffffffffffffffffffffff1673ffffffffffffffffffffffffffffffffffffffff16815260200190815260200160002060008381526020019081526020016000206000905550505050565b600060016008805490506129829190613c54565b90506000600960008481526020019081526020016000205490506000600883815481106129b2576129b1613f0b565b5b9060005260206000200154905080600883815481106129d4576129d3613f0b565b5b906000526020600020018190555081600960008381526020019081526020016000208190555060096000858152602001908152602001600020600090556008805480612a2357612a22613edc565b5b6001900381819060005260206000200160009055905550505050565b6000612a4a83610df2565b905081600660008573ffffffffffffffffffffffffffffffffffffffff1673ffffffffffffffffffffffffffffffffffffffff168152602001908152602001600020600083815260200190815260200160002081905550806007600084815260200190815260200160002081905550505050565b60007f01ffc9a7000000000000000000000000000000000000000000000000000000007bffffffffffffffffffffffffffffffffffffffffffffffffffffffff1916827bffffffffffffffffffffffffffffffffffffffffffffffffffffffff1916149050919050565b828054612b3490613d72565b90600052602060002090601f016020900481019282612b565760008555612b9d565b82601f10612b6f57805160ff1916838001178555612b9d565b82800160010185558215612b9d579182015b82811115612b9c578251825591602001919060010190612b81565b5b509050612baa9190612bae565b5090565b5b80821115612bc7576000816000905550600101612baf565b5090565b6000612bde612bd98461395d565b613938565b905082815260208101848484011115612bfa57612bf9613f78565b5b612c05848285613d06565b509392505050565b6000612c20612c1b8461398e565b613938565b905082815260208101848484011115612c3c57612c3b613f78565b5b612c47848285613d06565b509392505050565b600081359050612c5e816145da565b92915050565b600081359050612c73816145f1565b92915050565b600081359050612c8881614608565b92915050565b600081359050612c9d8161461f565b92915050565b600081519050612cb28161461f565b92915050565b60008083601f840112612cce57612ccd613f6e565b5b8235905067ffffffffffffffff811115612ceb57612cea613f69565b5b602083019150836001820283011115612d0757612d06613f73565b5b9250929050565b600082601f830112612d2357612d22613f6e565b5b8135612d33848260208601612bcb565b91505092915050565b600082601f830112612d5157612d50613f6e565b5b8135612d61848260208601612c0d565b91505092915050565b600081359050612d7981614636565b92915050565b600060208284031215612d9557612d94613f82565b5b6000612da384828501612c4f565b91505092915050565b60008060408385031215612dc357612dc2613f82565b5b6000612dd185828601612c4f565b9250506020612de285828601612c4f565b9150509250929050565b600080600060608486031215612e0557612e04613f82565b5b6000612e1386828701612c4f565b9350506020612e2486828701612c4f565b9250506040612e3586828701612d6a565b9150509250925092565b60008060008060808587031215612e5957612e58613f82565b5b6000612e6787828801612c4f565b9450506020612e7887828801612c4f565b9350506040612e8987828801612d6a565b925050606085013567ffffffffffffffff811115612eaa57612ea9613f7d565b5b612eb687828801612d0e565b91505092959194509250565b60008060408385031215612ed957612ed8613f82565b5b6000612ee785828601612c4f565b9250506020612ef885828601612c64565b9150509250929050565b60008060408385031215612f1957612f18613f82565b5b6000612f2785828601612c4f565b9250506020612f3885828601612d6a565b9150509250929050565b60008060008060608587031215612f5c57612f5b613f82565b5b6000612f6a87828801612c4f565b9450506020612f7b87828801612d6a565b935050604085013567ffffffffffffffff811115612f9c57612f9b613f7d565b5b612fa887828801612cb8565b925092505092959194509250565b600060208284031215612fcc57612fcb613f82565b5b6000612fda84828501612c79565b91505092915050565b60008060408385031215612ffa57612ff9613f82565b5b600061300885828601612c79565b925050602061301985828601612c4f565b9150509250929050565b60006020828403121561303957613038613f82565b5b600061304784828501612c8e565b91505092915050565b60006020828403121561306657613065613f82565b5b600061307484828501612ca3565b91505092915050565b60006020828403121561309357613092613f82565b5b600082013567ffffffffffffffff8111156130b1576130b0613f7d565b5b6130bd84828501612d3c565b91505092915050565b6000602082840312156130dc576130db613f82565b5b60006130ea84828501612d6a565b91505092915050565b6000806040838503121561310a57613109613f82565b5b600061311885828601612d6a565b925050602061312985828601612d6a565b9150509250929050565b61313c81613c88565b82525050565b61314b81613c9a565b82525050565b61315a81613ca6565b82525050565b600061316b826139bf565b61317581856139d5565b9350613185818560208601613d15565b61318e81613f87565b840191505092915050565b60006131a4826139ca565b6131ae81856139e6565b93506131be818560208601613d15565b6131c781613f87565b840191505092915050565b60006131dd826139ca565b6131e781856139f7565b93506131f7818560208601613d15565b80840191505092915050565b60006132106020836139e6565b915061321b82613fa5565b602082019050919050565b6000613233602b836139e6565b915061323e82613fce565b604082019050919050565b60006132566032836139e6565b91506132618261401d565b604082019050919050565b60006132796025836139e6565b91506132848261406c565b604082019050919050565b600061329c601c836139e6565b91506132a7826140bb565b602082019050919050565b60006132bf6030836139e6565b91506132ca826140e4565b604082019050919050565b60006132e26024836139e6565b91506132ed82614133565b604082019050919050565b60006133056019836139e6565b915061331082614182565b602082019050919050565b6000613328602c836139e6565b9150613333826141ab565b604082019050919050565b600061334b6038836139e6565b9150613356826141fa565b604082019050919050565b600061336e602a836139e6565b915061337982614249565b604082019050919050565b60006133916029836139e6565b915061339c82614298565b604082019050919050565b60006133b46020836139e6565b91506133bf826142e7565b602082019050919050565b60006133d76031836139e6565b91506133e282614310565b604082019050919050565b60006133fa602c836139e6565b91506134058261435f565b604082019050919050565b600061341d602f836139e6565b9150613428826143ae565b604082019050919050565b60006134406021836139e6565b915061344b826143fd565b604082019050919050565b60006134636024836139e6565b915061346e8261444c565b604082019050919050565b60006134866031836139e6565b91506134918261449b565b604082019050919050565b60006134a9602c836139e6565b91506134b4826144ea565b604082019050919050565b60006134cc6017836139f7565b91506134d782614539565b601782019050919050565b60006134ef6011836139f7565b91506134fa82614562565b601182019050919050565b6000613512602f836139e6565b915061351d8261458b565b604082019050919050565b61353181613cfc565b82525050565b600061354382856131d2565b915061354f82846131d2565b91508190509392505050565b6000613566826134bf565b915061357282856131d2565b915061357d826134e2565b915061358982846131d2565b91508190509392505050565b60006020820190506135aa6000830184613133565b92915050565b60006080820190506135c56000830187613133565b6135d26020830186613133565b6135df6040830185613528565b81810360608301526135f18184613160565b905095945050505050565b60006040820190506136116000830185613133565b61361e6020830184613528565b9392505050565b600060208201905061363a6000830184613142565b92915050565b60006020820190506136556000830184613151565b92915050565b600060208201905081810360008301526136758184613199565b905092915050565b6000602082019050818103600083015261369681613203565b9050919050565b600060208201905081810360008301526136b681613226565b9050919050565b600060208201905081810360008301526136d681613249565b9050919050565b600060208201905081810360008301526136f68161326c565b9050919050565b600060208201905081810360008301526137168161328f565b9050919050565b60006020820190508181036000830152613736816132b2565b9050919050565b60006020820190508181036000830152613756816132d5565b9050919050565b60006020820190508181036000830152613776816132f8565b9050919050565b600060208201905081810360008301526137968161331b565b9050919050565b600060208201905081810360008301526137b68161333e565b9050919050565b600060208201905081810360008301526137d681613361565b9050919050565b600060208201905081810360008301526137f681613384565b9050919050565b60006020820190508181036000830152613816816133a7565b9050919050565b60006020820190508181036000830152613836816133ca565b9050919050565b60006020820190508181036000830152613856816133ed565b9050919050565b6000602082019050818103600083015261387681613410565b9050919050565b6000602082019050818103600083015261389681613433565b9050919050565b600060208201905081810360008301526138b681613456565b9050919050565b600060208201905081810360008301526138d681613479565b9050919050565b600060208201905081810360008301526138f68161349c565b9050919050565b6000602082019050818103600083015261391681613505565b9050919050565b60006020820190506139326000830184613528565b92915050565b6000613942613953565b905061394e8282613da4565b919050565b6000604051905090565b600067ffffffffffffffff82111561397857613977613f3a565b5b61398182613f87565b9050602081019050919050565b600067ffffffffffffffff8211156139a9576139a8613f3a565b5b6139b282613f87565b9050602081019050919050565b600081519050919050565b600081519050919050565b600082825260208201905092915050565b600082825260208201905092915050565b600081905092915050565b6000613a0d82613cfc565b9150613a1883613cfc565b9250827fffffffffffffffffffffffffffffffffffffffffffffffffffffffffffffffff03821115613a4d57613a4c613e4f565b5b828201905092915050565b6000613a6382613cfc565b9150613a6e83613cfc565b925082613a7e57613a7d613e7e565b5b828204905092915050565b6000808291508390505b6001851115613ad357808604811115613aaf57613aae613e4f565b5b6001851615613abe5780820291505b8081029050613acc85613f98565b9450613a93565b94509492505050565b6000613ae782613cfc565b9150613af283613cfc565b9250613b1f7fffffffffffffffffffffffffffffffffffffffffffffffffffffffffffffffff8484613b27565b905092915050565b600082613b375760019050613bf3565b81613b455760009050613bf3565b8160018114613b5b5760028114613b6557613b94565b6001915050613bf3565b60ff841115613b7757613b76613e4f565b5b8360020a915084821115613b8e57613b8d613e4f565b5b50613bf3565b5060208310610133831016604e8410600b8410161715613bc95782820a905083811115613bc457613bc3613e4f565b5b613bf3565b613bd68484846001613a89565b92509050818404811115613bed57613bec613e4f565b5b81810290505b9392505050565b6000613c0582613cfc565b9150613c1083613cfc565b9250817fffffffffffffffffffffffffffffffffffffffffffffffffffffffffffffffff0483118215151615613c4957613c48613e4f565b5b828202905092915050565b6000613c5f82613cfc565b9150613c6a83613cfc565b925082821015613c7d57613c7c613e4f565b5b828203905092915050565b6000613c9382613cdc565b9050919050565b60008115159050919050565b6000819050919050565b60007fffffffff0000000000000000000000000000000000000000000000000000000082169050919050565b600073ffffffffffffffffffffffffffffffffffffffff82169050919050565b6000819050919050565b82818337600083830152505050565b60005b83811015613d33578082015181840152602081019050613d18565b83811115613d42576000848401525b50505050565b6000613d5382613cfc565b91506000821415613d6757613d66613e4f565b5b600182039050919050565b60006002820490506001821680613d8a57607f821691505b60208210811415613d9e57613d9d613ead565b5b50919050565b613dad82613f87565b810181811067ffffffffffffffff82111715613dcc57613dcb613f3a565b5b80604052505050565b6000613de082613cfc565b91507fffffffffffffffffffffffffffffffffffffffffffffffffffffffffffffffff821415613e1357613e12613e4f565b5b600182019050919050565b6000613e2982613cfc565b9150613e3483613cfc565b925082613e4457613e43613e7e565b5b828206905092915050565b7f4e487b7100000000000000000000000000000000000000000000000000000000600052601160045260246000fd5b7f4e487b7100000000000000000000000000000000000000000000000000000000600052601260045260246000fd5b7f4e487b7100000000000000000000000000000000000000000000000000000000600052602260045260246000fd5b7f4e487b7100000000000000000000000000000000000000000000000000000000600052603160045260246000fd5b7f4e487b7100000000000000000000000000000000000000000000000000000000600052603260045260246000fd5b7f4e487b7100000000000000000000000000000000000000000000000000000000600052604160045260246000fd5b600080fd5b600080fd5b600080fd5b600080fd5b600080fd5b600080fd5b6000601f19601f8301169050919050565b60008160011c9050919050565b7f537472696e67733a20686578206c656e67746820696e73756666696369656e74600082015250565b7f455243373231456e756d657261626c653a206f776e657220696e646578206f7560008201527f74206f6620626f756e6473000000000000000000000000000000000000000000602082015250565b7f4552433732313a207472616e7366657220746f206e6f6e20455243373231526560008201527f63656976657220696d706c656d656e7465720000000000000000000000000000602082015250565b7f4552433732313a207472616e736665722066726f6d20696e636f72726563742060008201527f6f776e6572000000000000000000000000000000000000000000000000000000602082015250565b7f4552433732313a20746f6b656e20616c7265616479206d696e74656400000000600082015250565b7f6f6e6c7920636f6e7472616374206f776e6572206f72206f70657261746f722060008201527f63616e2063616c6c206d696e74466f7200000000000000000000000000000000602082015250565b7f4552433732313a207472616e7366657220746f20746865207a65726f2061646460008201527f7265737300000000000000000000000000000000000000000000000000000000602082015250565b7f4552433732313a20617070726f766520746f2063616c6c657200000000000000600082015250565b7f4552433732313a206f70657261746f7220717565727920666f72206e6f6e657860008201527f697374656e7420746f6b656e0000000000000000000000000000000000000000602082015250565b7f4552433732313a20617070726f76652063616c6c6572206973206e6f74206f7760008201527f6e6572206e6f7220617070726f76656420666f7220616c6c0000000000000000602082015250565b7f4552433732313a2062616c616e636520717565727920666f7220746865207a6560008201527f726f206164647265737300000000000000000000000000000000000000000000602082015250565b7f4552433732313a206f776e657220717565727920666f72206e6f6e657869737460008201527f656e7420746f6b656e0000000000000000000000000000000000000000000000602082015250565b7f4552433732313a206d696e7420746f20746865207a65726f2061646472657373600082015250565b7f45524337323155524953746f726167653a2055524920717565727920666f722060008201527f6e6f6e6578697374656e7420746f6b656e000000000000000000000000000000602082015250565b7f4552433732313a20617070726f76656420717565727920666f72206e6f6e657860008201527f697374656e7420746f6b656e0000000000000000000000000000000000000000602082015250565b7f4552433732314d657461646174613a2055524920717565727920666f72206e6f60008201527f6e6578697374656e7420746f6b656e0000000000000000000000000000000000602082015250565b7f4552433732313a20617070726f76616c20746f2063757272656e74206f776e6560008201527f7200000000000000000000000000000000000000000000000000000000000000602082015250565b7f436f6c6c65637469626c654e46543a206d75737420686176652061646d696e2060008201527f726f6c6500000000000000000000000000000000000000000000000000000000602082015250565b7f4552433732313a207472616e736665722063616c6c6572206973206e6f74206f60008201527f776e6572206e6f7220617070726f766564000000000000000000000000000000602082015250565b7f455243373231456e756d657261626c653a20676c6f62616c20696e646578206f60008201527f7574206f6620626f756e64730000000000000000000000000000000000000000602082015250565b7f416363657373436f6e74726f6c3a206163636f756e7420000000000000000000600082015250565b7f206973206d697373696e6720726f6c6520000000000000000000000000000000600082015250565b7f416363657373436f6e74726f6c3a2063616e206f6e6c792072656e6f756e636560008201527f20726f6c657320666f722073656c660000000000000000000000000000000000602082015250565b6145e381613c88565b81146145ee57600080fd5b50565b6145fa81613c9a565b811461460557600080fd5b50565b61461181613ca6565b811461461c57600080fd5b50565b61462881613cb0565b811461463357600080fd5b50565b61463f81613cfc565b811461464a57600080fd5b5056fea2646970667358221220ab3596f0cc30b8e5e33af39766108530b2f255de81b885c0ad333c295604dc0164736f6c63430008070033",
  "immutableReferences": {},
  "source": "// contracts/CollectibleNFT.sol\n// SPDX-License-Identifier: MIT\npragma solidity >=0.8.7;\n\nimport \"@openzeppelin/contracts/token/ERC721/extensions/ERC721URIStorage.sol\";\nimport \"@openzeppelin/contracts/token/ERC721/extensions/ERC721Enumerable.sol\";\nimport \"@openzeppelin/contracts/access/AccessControl.sol\";\nimport \"@openzeppelin/contracts/token/ERC721/ERC721.sol\";\nimport './ERC2981ContractWideRoyalties.sol';\n\ncontract CollectibleNFT is ERC721Enumerable, ERC721URIStorage, AccessControl, ERC2981ContractWideRoyalties {\n\n    address public contractOwner;\n    bytes32 public constant ADMIN_ROLE = keccak256(\"ADMIN_ROLE\");\n    address public constant prodOperatorAddress = 0xB62BcD40A24985f560b5a9745d478791d8F1945C;\n    address public constant testOperatorAddress = 0x8Eb82154f314EC687957CE1e9c1A5Dc3A3234DF9;\n\n    string _baseTokenURI;\n    \n    constructor(string memory name_, \n        string memory symbol_, \n        string memory baseURI,\n        address royaltyRecipient,\n        uint256 royaltyValue) \n            ERC721(name_, symbol_) {\n        _setRoyalties(royaltyRecipient, royaltyValue);\n        _setupRole(ADMIN_ROLE, msg.sender);\n        contractOwner = msg.sender;\n        _baseTokenURI = baseURI;\n    }\n\n    function _baseURI() internal view virtual override returns (string memory) {\n        return _baseTokenURI;\n    }\n\n    function setBaseURI(string memory baseURI) public {\n        require(\n            hasRole(ADMIN_ROLE, _msgSender()),\n            \"CollectibleNFT: must have admin role\"\n        );\n        _baseTokenURI = baseURI;\n    }\n\n    function _beforeTokenTransfer(address from, address to, uint256 tokenId)\n        internal\n        override(ERC721, ERC721Enumerable) {\n        super._beforeTokenTransfer(from, to, tokenId);\n    }\n\n    // The following functions are overrides required by Solidity.\n    function _burn(uint256 tokenId) internal override(ERC721, ERC721URIStorage) {\n        super._burn(tokenId);\n    }\n\n    function tokenURI(uint256 tokenId)\n        public\n        view\n        override(ERC721, ERC721URIStorage)\n        returns (string memory) {\n        return super.tokenURI(tokenId);\n    }\n\n    function supportsInterface(bytes4 interfaceId)\n        public\n        view\n        override(ERC721, ERC721Enumerable, ERC2981Base, AccessControl)\n        returns (bool) {\n        return super.supportsInterface(interfaceId);\n    }\n\n    modifier onlyOperator() {\n        require((msg.sender == contractOwner) ||\n            (msg.sender == prodOperatorAddress) ||\n            (msg.sender == testOperatorAddress), \n            \"only contract owner or operator can call mintFor\");\n        _;\n    }\n\n    function bytesToUint(bytes memory b) internal pure returns (uint256){\n        uint256 number;\n        for (uint i = 0; i < b.length; i++) {\n            number = number + uint(uint8(b[i])) * (2 ** (8 * (b.length - (i + 1))));\n        }\n        return number;\n    }\n\n    // amount for later use\n    function mintFor(address player, uint256, bytes calldata mintingBlob)\n        public\n        onlyOperator\n        returns (uint256) {\n        uint256 tokenId = bytesToUint(mintingBlob);\n        _mint(player, tokenId);\n\n        return tokenId;\n    }\n}",
  "sourcePath": "/Users/donghao/Documents/code/emtech/decentralized-marketplace/nft-marketplace/smart-contracts/contracts/CollectibleNFT.sol",
  "compiler": {
    "name": "solc",
    "version": "0.8.7+commit.e28d00a7.Emscripten.clang"
  },
  "schemaVersion": "3.4.7",
  "updatedAt": "2022-11-21T07:30:39.561Z",
  "networkType": "ethereum",
  "devdoc": {
    "kind": "dev",
    "methods": {
      "approve(address,uint256)": {
        "details": "See {IERC721-approve}."
      },
      "balanceOf(address)": {
        "details": "See {IERC721-balanceOf}."
      },
      "getApproved(uint256)": {
        "details": "See {IERC721-getApproved}."
      },
      "getRoleAdmin(bytes32)": {
        "details": "Returns the admin role that controls `role`. See {grantRole} and {revokeRole}. To change a role's admin, use {_setRoleAdmin}."
      },
      "grantRole(bytes32,address)": {
        "details": "Grants `role` to `account`. If `account` had not been already granted `role`, emits a {RoleGranted} event. Requirements: - the caller must have ``role``'s admin role."
      },
      "hasRole(bytes32,address)": {
        "details": "Returns `true` if `account` has been granted `role`."
      },
      "isApprovedForAll(address,address)": {
        "details": "See {IERC721-isApprovedForAll}."
      },
      "name()": {
        "details": "See {IERC721Metadata-name}."
      },
      "ownerOf(uint256)": {
        "details": "See {IERC721-ownerOf}."
      },
      "renounceRole(bytes32,address)": {
        "details": "Revokes `role` from the calling account. Roles are often managed via {grantRole} and {revokeRole}: this function's purpose is to provide a mechanism for accounts to lose their privileges if they are compromised (such as when a trusted device is misplaced). If the calling account had been revoked `role`, emits a {RoleRevoked} event. Requirements: - the caller must be `account`."
      },
      "revokeRole(bytes32,address)": {
        "details": "Revokes `role` from `account`. If `account` had been granted `role`, emits a {RoleRevoked} event. Requirements: - the caller must have ``role``'s admin role."
      },
      "royaltyInfo(uint256,uint256)": {
        "params": {
          "_tokenId": "- the NFT asset queried for royalty information",
          "_value": "- the sale price of the NFT asset specified by _tokenId"
        },
        "returns": {
          "receiver": "- address of who should be sent the royalty payment",
          "royaltyAmount": "- the royalty payment amount for value sale price"
        }
      },
      "safeTransferFrom(address,address,uint256)": {
        "details": "See {IERC721-safeTransferFrom}."
      },
      "safeTransferFrom(address,address,uint256,bytes)": {
        "details": "See {IERC721-safeTransferFrom}."
      },
      "setApprovalForAll(address,bool)": {
        "details": "See {IERC721-setApprovalForAll}."
      },
      "symbol()": {
        "details": "See {IERC721Metadata-symbol}."
      },
      "tokenByIndex(uint256)": {
        "details": "See {IERC721Enumerable-tokenByIndex}."
      },
      "tokenOfOwnerByIndex(address,uint256)": {
        "details": "See {IERC721Enumerable-tokenOfOwnerByIndex}."
      },
      "totalSupply()": {
        "details": "See {IERC721Enumerable-totalSupply}."
      },
      "transferFrom(address,address,uint256)": {
        "details": "See {IERC721-transferFrom}."
      }
    },
    "version": 1
  },
  "userdoc": {
    "kind": "user",
    "methods": {},
    "version": 1
  }
}